:100000000C945D000C9485000C9485000C94850084
:100010000C9485000C9485000C9485000C9485004C
:100020000C9485000C9485000C9485000C941402AB
:100030000C9485000C9485000C9485000C9485002C
:100040000C94CA010C9485000C9485000C948500D6
:100050000C9485000C9485000C9485000C9485000C
:100060000C9485000C94850000000008000201003B
:100070000003040700000000000000000000000072
:10008000250028002B0000000000240027002A0083
:10009000040404040404040402020202020203032E
:1000A0000303030301020408102040800102040836
:1000B0001020010204081020BF0311241FBECFEF3F
:1000C000D8E0DEBFCDBF11E0A0E0B1E0E6ECF7E0A4
:1000D00002C005900D92A030B107D9F721E0A0E051
:1000E000B1E001C01D92AB33B207E1F710E0CDE5FE
:1000F000D0E004C02197FE010E94DB03CC35D1077C
:10010000C9F70E94EB020C94E1030C940000CF931A
:10011000DF93DC018C918C3008F06FC0CB01FB01C8
:10012000EC55FF4F249180579F4FFC018491882309
:1001300099F090E0880F991FFC01EA57FF4FC59195
:10014000D491FC01E458FF4F859194918FB7F894B6
:10015000E881E22BE8838FBF8C91282F30E0F901F2
:10016000EE0FFF1FE20FF31FE95EFE4F962F9F7306
:100170006081607C692B60839EE811969C93119747
:1001800094E612969C9312972CE0622F0E94CF0364
:10019000829FB001112430E020E0AB01420F531FD9
:1001A000FA01EE0FFF1FE40FF51FE95EFE4F90818D
:1001B00096FD16C02F5F3F4F2C30310571F781112E
:1001C0000FC01092800082E0809381001092850021
:1001D00010928400B19A80916F00826080936F00CA
:1001E000EC918E2F90E0FC01EE0FFF1FE80FF91F3E
:1001F000E95EFE4F8081806480838C91DF91CF9196
:10020000089590E0FC01E859FF4F2491FC01EC5562
:10021000FF4F3491FC01E057FF4FE491EE23C9F00A
:10022000222339F0233001F1A8F4213019F12230D2
:1002300029F1F0E0EE0FFF1FE458FF4FA591B491B4
:100240008FB7F894EC91611126C030953E233C9312
:100250008FBF08952730A9F02830C9F0243049F71E
:10026000809180008F7D03C0809180008F77809384
:100270008000DFCF84B58F7784BDDBCF84B58F7DE1
:10028000FBCF8091B0008F778093B000D2CF809168
:10029000B0008F7DF9CF3E2BDACF3FB7F894809135
:1002A000130190911401A0911501B091160126B58A
:1002B000A89B05C02F3F19F00196A11DB11D3FBF9E
:1002C000BA2FA92F982F8827BC01CD01620F711D6D
:1002D000811D911D42E0660F771F881F991F4A9567
:1002E000D1F708958F929F92AF92BF92CF92DF92F3
:1002F000EF92FF924B015C010E944D016B017C016A
:100300000E944D016C197D098E099F09683E73405A
:1003100081059105A8F321E0821A9108A108B1088E
:1003200088EEC80E83E0D81EE11CF11C81149104F4
:10033000A104B10429F7FF90EF90DF90CF90BF9018
:10034000AF909F908F900895DC01EC91EC3008F510
:1003500012962C9188E592E0821B910927FD9395D6
:10036000880F991F880F991F681779070CF4CB0124
:100370000297880F991F4FB7F8942E2F30E0F9019C
:10038000EE0FFF1FE20FF31FE95EFE4F92838183A2
:100390004FBF08951F920F920FB60F9211242F9303
:1003A0003F938F939F93AF93BF9380910F01909151
:1003B0001001A0911101B091120130910E0123E0C2
:1003C000230F2D3758F50196A11DB11D20930E0165
:1003D00080930F0190931001A0931101B09312012B
:1003E0008091130190911401A0911501B091160113
:1003F0000196A11DB11D8093130190931401A09348
:100400001501B0931601BF91AF919F918F913F91CC
:100410002F910F900FBE0F901F90189526E8230F75
:100420000296A11DB11DD2CF1F920F920FB60F924F
:1004300011242F933F934F935F936F937F938F93E9
:100440009F93AF93BF93CF93DF93EF93FF938091ED
:100450000001C0910101D0E087FF24C01092850007
:1004600010928400809100018F5F80930001809141
:100470000001082E000C990B8C179D0724F4809125
:1004800000018C30C4F18091840090918500049625
:1004900080349C4908F47AC0809184009091850052
:1004A000049676C080910001082E000C990B8C17E1
:1004B0009D07C4F6E09100018E2FEE0F990BFC0111
:1004C000EE0FFF1FE80FF91FE95EFE4F808186FFE8
:1004D000C9CFE09100018E2FEE0F990BFC01EE0FBA
:1004E000FF1FE80FF91FE95EFE4F808160E08F7308
:1004F0000E940101B7CF2091840030918500E091E6
:1005000000018E2FEE0F990BFC01EE0FFF1FE80F7D
:10051000F91FE95EFE4F81819281820F931F9093B4
:10052000890080938800E09100018E2FEE0F990BD7
:10053000FC01EE0FFF1FE80FF91FE95EFE4F8081FF
:1005400086FF11C0E09100018E2FEE0F990BFC0188
:10055000EE0FFF1FE80FF91FE95EFE4F808161E09B
:100560008F730E940101FF91EF91DF91CF91BF91B5
:10057000AF919F918F917F916F915F914F913F913B
:100580002F910F900FBE0F901F90189580E49CE95B
:1005900090938900809388008FEF80930001E3CFD0
:1005A000FC01909101019C3098F481E0890F8093C7
:1005B00001019083892F90E0FC01EE0FFF1FE80FEF
:1005C000F91FE95EFE4F88EB9BE0928381830895DB
:1005D0008FEF80830895789484B5826084BD84B55C
:1005E000816084BD85B5826085BD85B5816085BD2E
:1005F00080916E00816080936E00109281008091E6
:10060000810082608093810080918100816080936D
:100610008100809180008160809380008091B10092
:1006200084608093B1008091B00081608093B000BD
:1006300080917A00846080937A0080917A00826051
:1006400080937A0080917A00816080937A00809113
:100650007A00806880937A001092C10068E070E0B0
:100660008BE091E00E94870069E070E088E091E013
:100670000E9487006AE070E085E091E00E948700B8
:100680006BE070E082E091E00E9487006CED75E025
:100690008BE091E00E94A4016CED75E088E091E0B0
:1006A0000E94A4016CED75E085E091E00E94A40138
:1006B0006CED75E082E091E00E94A40168EB7BE0C4
:1006C00080E090E00E94720160ED77E08BE091E0C5
:1006D0000E94A40160ED77E088E091E00E94A4010F
:1006E00060ED77E085E091E00E94A40160ED77E0A5
:1006F00082E091E00E94A40164E971E180E090E071
:100700000E9472016CED75E08BE091E00E94A40103
:100710006CED75E088E091E00E94A4016CED75E05D
:1007200085E091E00E94A4016CED75E082E091E02B
:100730000E94A40168EE73E080E090E00E947201E4
:10074000C0E0D0E060ED77E08BE091E00E94A40192
:1007500060ED77E088E091E00E94A40160ED77E031
:1007600085E091E00E94A40160ED77E082E091E0F5
:100770000E94A401209731F30E940000E3CF8BE098
:1007800091E00E94D00288E091E00E94D00285E0D2
:1007900091E00E94D00282E091E00C94D002991B7B
:1007A00079E004C0991F961708F0961B881F7A9568
:1007B000C9F780950895EE0FFF1F0590F491E02D85
:0607C0000994F894FFCF3C
:00000001FF
